:020000040800F2
:1000000000060020010100087F210008751D00087E
:100010004D200008590800080D27000800000000C6
:100020000000000000000000000000008321000824
:10003000D1090008000000008121000829220008E1
:100040001B0100081B0100081B0100081B01000820
:100050001B0100081B010008D3090008E109000882
:100060001B010008E7090008ED0900081B01000852
:100070001B0100081B0100081B0100081B010008F0
:100080001B0100081B0100081B0100081B010008E0
:100090001B0100081B0100081B010008F3090008F0
:1000A0001B0100081B0100081B0100081B010008C0
:1000B0001B0100088D2200081B0100081B0100081D
:1000C0001B0100081B0100081B0100081B010008A0
:1000D0001B010008012700081B0100081B01000884
:1000E000D90900081B0100081B010008DFF80CD02B
:1000F00000F0C0FA004800472D300008000600203C
:100100000648804706480047FEE7FEE7FEE7FEE7B1
:10011000FEE7FEE7FEE7FEE7FEE7FEE78B220008CC
:10012000ED000008202A04DB203A21FA02F0002129
:10013000704721FA02F3D040C2F1200291400843F7
:100140001946704740EA01039B0703D009E008C93C
:10015000121F08C0042AFAD203E011F8013B00F88C
:10016000013B521EF9D27047D2B201E000F8012BD8
:10017000491EFBD270470022F6E710B513460A4627
:1001800004461946FFF7F0FF204610BD10B50022C7
:1001900000E0521C835C8C5CA34201D1002BF8D19F
:1001A000D8B2E1B2401A10BD70B50F4D00B9286841
:1001B000002412E00A4602E09E4203D0521C13784B
:1001C000002BF9D1DAB2224305D02BB124B10021A2
:1001D00000F8011B04E00446401C0678002EE9D11B
:1001E0002860204670BD00001000002070B5064653
:1001F00002F0AEFA046805460A220021304600F0FB
:1002000049F82C6070BD30B50B4601460020202215
:10021000012409E021FA02F59D4205D303FA02F513
:10022000491B04FA02F52844151EA2F10102F1DC73
:1002300030BD2DE9F05F0546002092469B4688467A
:100240000646814640241BE0284641464746224652
:10025000FFF768FF53465A46C01A914110D3114622
:100260001846224600F018FA2D1A67EB01084F468F
:1002700022460120002100F00FFA17EB00094E4141
:10028000201EA4F10104DFDC484631462A464346DD
:10029000BDE8F09F2DE9F04791460F4680460446A1
:1002A000002614F8015B2DB100F018FA0068405DDB
:1002B000C007F6D12B2D02D02D2D18D0641E4A4632
:1002C0003946204600F00EFA27B13968A14201D123
:1002D000C7F8008071054FF002040BD5404200289A
:1002E00003DD02F035FA0460A007BDE8F08746F4AC
:1002F0008066E4E70028F8DA02F02AFA04606FF07A
:100300000040F2E72DE9FE4F804681EA0300C00F6E
:100310000C46009021F0004123F00045B8EB0200AC
:10032000A94105D24046214690461C460B4602464E
:1003300023F00040104347D0270DC7F30A00C3F352
:100340000A510290401A019040286BDAC3F313005F
:1003500040F4801B0098924620B10023D2EB030AA0
:1003600063EB0B0B01985946C0F14002504600F078
:1003700093F906460D4650465946019A00F09BF9FE
:1003800010EB08006141002487EA115284EAE77308
:100390001A4340D0009A62B3019A012A4FEA0752E9
:1003A00015DC001B61EB02014FF0004202EA07522C
:1003B000CDE90042001C41F5801132462B4600F089
:1003C000EFF903B0BDE8F08F40462146F9E7001B86
:1003D00061EB0201001C41F5801300185B412018FD
:1003E000A2F5001747EB030140EAD570B6196D413D
:1003F00011E06D084FEA360645EAC0754FEA07522C
:10040000001B61EB0201001C41F5801149084FEA15
:1004100030000019514132462B4603B0BDE8F04F81
:1004200000F0AFB90098012240000023D0EB020297
:1004300063EBE073009821464FEAE074B8EB0000EC
:1004400061EB0401E9E783F000435BE781F00041E1
:1004500058E72DE9FE4F81EA030404F0004421F03F
:10046000004100944FF0000B23F0004350EA0104D8
:100470005ED052EA03045BD0C3F30A54C1F30A55B9
:100480002C44A4F2F3340194A0FB0254C1F31301F1
:1004900041F48011C3F3130343F4801301FB0244BE
:1004A00000FB034E840A970A44EA815447EA8357C3
:1004B000A4FB076802958D0A05FB07854FEA932C7C
:1004C00004FB0C542705029D4FEA065847EA1637ED
:1004D000B5EB08056EEB070C870E920E47EA811705
:1004E00042EA8312A7FB0201B6EB0B0164EB0004A6
:1004F0002B0D43EA0C335E1844EB1C50DA46514690
:10050000E7FB0201C5F313044FEA0B3343EA14532C
:100510004FEA0432019C43EA0603A4F10C0402945E
:10052000009CCDE900B400F03BF903B0BDE8F08FCA
:1005300000200146F9E72DE9F04D81EA030404F0BB
:10054000004B21F0004514464FF0000A23F0004113
:1005500050EA050220D054EA01021DD0C5F30A5723
:100560000246C5F31303C1F31300C1F30A5640F466
:10057000801543F48013A7EB0608101BD64608F23B
:10058000FD3873EB050002D308F1010801E0921871
:100590005B41B8F1000F03DA00200146BDE8F08DA1
:1005A00000204FF48011064684460EE0171B73EBC3
:1005B000050705D3121B63EB050306434CEA010C48
:1005C00049084FEA300092185B4150EA0107EDD12B
:1005D00052EA030012D082EA040083EA05010843CC
:1005E00005D0101BAB4106D20122002306E00022F9
:1005F0004FF0004302E06FF0010253101AEB0600C7
:100600004CEB085110EB0A0041EB0B01BDE8F04D3B
:1006100000F0B7B8C1F30A52C1F3130140F2FF333F
:1006200041F480119A4202DA00200146704740F2FC
:1006300033439A42A2F2334202DC5242FFF772BDC8
:1006400000F02AB830B5041E71F1000404DB4FF04D
:100650000044404264EB0101141E73F1000405DB09
:100660001C464FF00043524263EB0403994208BF1B
:10067000904230BD064C074D06E0E06840F00103B3
:1006800094E8070098471034AC42F6D3FFF732FDE8
:10069000BC310008DC310008202A04DB203A00FAD3
:1006A00002F1002070479140C2F1200320FA03F3C9
:1006B000194390407047202A06DBCB17203A41FAB5
:1006C00002F043EAE07306E041FA02F3D040C2F1DF
:1006D00020029140084319467047000000487047C7
:1006E000B83100082DE9F05F8246007800271546F2
:1006F0008B460AF10104B946302801D09DB113E0C0
:1007000014F8010B0127782803D0582801D045B1EF
:100710000AE00DB1102D07D10027102514F8010BA8
:1007200002E0082500E00A250026B0460EE005FBA1
:10073000080005FB06F1012701EB10461FFA80F8BF
:10074000B6F5803F00D3B94614F8010B294600F0F6
:1007500075F80028EBDABBF1000F05D00FB1641E6D
:1007600000E05446CBF80040B9F1000F06D001F08C
:10077000EFFF02210160C81EBDE8F09F48EA064075
:10078000FAE710B5141E73F1000408DA401C41F1B9
:10079000000192185B411A4301D120F0010010BD05
:1007A0002DE9F04D92469B4611B1B1FA81F202E07B
:1007B000B0FA80F220329046FFF76EFF04460F46F3
:1007C00040EA0A0041EA0B0153465A46084313D057
:1007D000114653EA010019D0C8F140025046FFF714
:1007E000A1FC05460E46504659464246FFF754FFC7
:1007F000084305D0012004E020463946BDE8F08DCD
:100800000020054346EAE0762C4337430A98630507
:10081000E40AA0EB08000022FD0A44EA47540A302B
:1008200002D500200146E9E7010510196941DDE91B
:10083000084500196941BDE8F04DA2E73A2800D209
:10084000303820F02002412A01D3A2F1370088423B
:1008500001D34FF0FF307047FEE700007CB524A1C4
:100860002448FFF7A1FC054621A10020FFF79CFCCE
:10087000040033D020A12846FFF788FC48B9204661
:10088000FFF7B4FC01901D48016900910FC801F009
:100890001EFC1BA12846FFF779FC48B92046FFF74C
:1008A000A5FC01901748016900910FC801F00FFCE9
:1008B00015A12846FFF76AFC20B92046FFF796FCF1
:1008C00001F070FC11A12846FFF760FC002804D15C
:1008D0002046FFF78BFC0F4908747CBD0EA128460B
:1008E000FFF754FC0028F8D1BDE87C4001F05CBA69
:1008F00020000000380100206D3100007C01002044
:100900006D3200009001002073000000735F73657A
:1009100074000000A40100206300000010B501F085
:10092000F7FEBDE8104001A001F0F2BE0A00000091
:1009300070B5084C0025206A01E02554401C202891
:10094000FBDB044904A0FFF7E9FFFFF787FF2562FF
:1009500070BD000038010020726563696576653AF4
:100960002025730070B5144C00252046616A90F86C
:100970002C0049B15D280DD0216A20290EDA60547F
:10098000206A401C20620EE05B280CD10120C4E9E3
:10099000085008E06562FFF7CBFF04E007A0FFF70F
:1009A000BDFF25626562A06ABDE870400249012270
:1009B0002C3101F065B90000380100206572726FBA
:1009C000723A636D645F746F6F5F6C6F6E67000087
:1009D0007047012000F0FAB84FF4806000F0F6B8DC
:1009E000022000F0F3B8082000F0F0B8102000F06A
:1009F000EDB810B5202000F0E9F8402000F0E6F84E
:100A0000BDE81040802000F0E1B872B6FEE710B5F6
:100A100090F821100022022905D00421816380F87A
:100A20002020012010BD01680B6823F00E030B602D
:100A300001680B6823F001030B6090F84030C46B31
:100A4000012101FA03F3636080F8211080F820206F
:100A5000104610BD10B590F821100024022903D0D3
:100A60000421816301243DE001680A6822F00E023E
:100A70000A6001680A6822F001020A601A4A0168E5
:100A8000914201D1012121E0174A1432914201D152
:100A900010211BE0144A2832914201D1891515E03A
:100AA000114A3C32914201D189140FE00E4A503272
:100AB000914202D14FF4803108E00B4A64329142F6
:100AC00002D14FF4801101E04FF08071064A083ADC
:100AD0005160012180F82110002180F82010416B25
:100AE00001B18847204610BD0800024070B5044699
:100AF00000F06EF90546601C02D0044800780444FA
:100B000000F066F9401BA042FAD370BD000000203F
:100B10002B4910B5097A002920D0024629482A4BD2
:100B2000202A3AD00FDC012A20D0022A17D0082A26
:100B30003BD0102A12D11021184600F043F90028AA
:100B40000CD1062038E0402A1FD0802A15D04FF45F
:100B500080618A4202D100F035F928B310BD02212C
:100B600000F030F90028F9D1012025E0012100F042
:100B700029F90028F2D102201EE08021184600F059
:100B800021F90028EAD1032016E04021184600F0A0
:100B900019F90028E2D104200EE02021184600F0C7
:100BA00011F90028DAD1052006E00821184600F0E6
:100BB00009F90028D2D10720BDE8104001F00CB996
:100BC00068010020000C014000080140044910B5F4
:100BD0000A68024202D00860FFF79AFF10BD0000C9
:100BE000140401402DE9F84FDFF8B891002409F111
:100BF000040A0AF1040B23460F270BF1040EC9E087
:100C00000125A5402A40AA427DD1674ED1F804C0F3
:100C1000ACEB0608B44532D014DCBCF1030F3AD07B
:100C200009DCBCF1000F2AD0BCF1010F1CD0BCF1D3
:100C3000020F31D11DE0BCF1110F17D0BCF1120F22
:100C40002AD119E0B8F5881F19D006DCB8F5803F25
:100C500015D0B8F5801F1FD111E0B8F5001F0ED0D8
:100C6000B8F5041F18D10AE0CB6815E0CB681B1D4E
:100C700012E0CB6808330FE0CB680C330CE08B68D4
:100C80002BB1012B4FF0080303D0456104E004238E
:100C900002E0056100E00023FF2A01D8064601E0DA
:100CA00000F104064FEA840501D9A5F12005D6F824
:100CB000008007FA05FC28EA0C0803FA05F548EA63
:100CC0000508C6F800804D68ED0062D5374DAE6965
:100CD00046F00106AE61AD6924F0030605F001059A
:100CE0000095334D06EB050CDCF80850A607360FCF
:100CF00007FA06F825EA0805DFF8B880404503D171
:100D00004FF0000817E044E0DFF8AC80404502D126
:100D10004FF001080FE0DFF8A480404502D14FF00A
:100D2000020808E0DFF89880404502D14FF0030840
:100D300001E04FF0040808FA06F848EA0508CCF884
:100D400008804D68D9F80060ED034D4601D5164383
:100D500000E096432E604D68DAF80060AD0355461A
:100D600001D5164300E096432E604D68DBF8006025
:100D7000ED025D4601D5164300E096432E604D68B6
:100D8000DEF80060AD02754601D5164300E09643DB
:100D90002E60641C0D682A46E5407FF431AFBDE843
:100DA000F88F000000040140000011100010024004
:100DB0000000014000080140000C0140001001400B
:100DC000001401408068084000D0012070470000F6
:100DD00001488068704700000000002002488168D8
:100DE000027811448160704700000020074810B568
:100DF000016841F010010160032000F06DF80F2040
:100E000000F006F800F024F8002010BD0020024099
:100E100070B50D4D04464FF47A712878B1FBF0F0AF
:100E20000A490968B1FBF0F000F0C4FA48B9102C87
:100E300007D200222146501E00F02EF800206C60E0
:100E400070BD012070BD0000000000200C000020DB
:100E5000094808B5816941F001018161816901F0AA
:100E600001010091C16941F08051C161C06900F088
:100E70008050009008BD000000100240002809DBEF
:100E800000F01F02012191404009800000F1E020A4
:100E9000C0F8001170470000F0B40E4B1B680C4600
:100EA000C3F30223C3F10705042D00D90425191D3E
:100EB000072901D2002300E0DB1E012606FA05F116
:100EC000491E214099409E40761E16403143F0BC99
:100ED00001F02EBC0CED00E0064900F007020868A6
:100EE0004FF6FF03184040EA0220034A104308600F
:100EF000704700000CED00E00000FA052DE9F04716
:100F00000F46050061D0434E306800F00700B8423C
:100F100009D2306820F0070038433060306800F0B4
:100F20000700B84251D128683B4C810712D54007D1
:100F300003D5606840F4E06060602878000703D55E
:100F4000606840F4605060606068A96820F0F0005C
:100F5000084360602878C00728D06868012810D04E
:100F60002168022810D0890700292EDA616821F053
:100F7000030101436160FFF72BFF804641F288398E
:100F80000DE021688903EFE78901EDE7FFF720FF16
:100F9000A0EB0801494502D90320BDE8F08760684D
:100FA000696800F00C00B0EB810FEFD1306800F001
:100FB0000700B8420BD9306820F007003843306092
:100FC000306800F00700B84201D00120E5E728783A
:100FD000400705D56068E96820F4E0600843606078
:100FE0002878000706D56068296920F4605040EA37
:100FF000C100606000F018F86168084AC1F303118D
:10100000515CC8400649086006480068FFF700FFC9
:101010000020C2E7002002400010024024310008F6
:101020000C0000200400002012A185B00FC98DE83B
:101030000F0014A0144A006804905168134801F08E
:101040000C03042B10D0082B0ED1C1F38343C9032A
:101050001DF803000AD5516804AAC1F34041515C50
:101060000A4A5043B0FBF1F005B0704708494843C5
:10107000FAE7000002030405060708090A0B0C0D35
:101080000E0F1010010200000010024000127A0042
:1010900000093D002DE9F84F040070D02078C04DC4
:1010A000C00749D06868C0F38100012807D068688C
:1010B000C0F38100022809D16868C00306D52868FA
:1010C000800339D560680028E7D035E06068B0F566
:1010D000803F0BD010B1B0F5A02F11D0286820F4BC
:1010E00080302860286820F4802002E0286840F4DE
:1010F00080302860606890B1FFF76AFE06460AE01B
:10110000286840F480202860F0E700BFFFF760FE09
:10111000801B642873D828688003F7D50CE0FFF79C
:1011200057FE064605E000BFFFF752FE801B64280D
:10113000F0D828688003F7D420789A4E80074FF0C3
:1011400001094FF0000839D5686810F00C0F07D07E
:101150006868C0F38100022809D16868C00306D41A
:101160002868800714D52069012808D110E020697B
:10117000B0B1C6F80090FFF72BFE074605E00AE184
:10118000FFF726FEC01B0228C4D828688007F7D5C1
:101190002868616920F0F80040EAC10028600DE08D
:1011A000C6F80080FFF714FE074604E0FFF710FEC4
:1011B000C01B022823D828688007F7D420780007AE
:1011C0002CD57948A169D9B1C0F80090FFF700FE8D
:1011D000074604E0FFF7FCFDC01B02280FD8686A31
:1011E0008007F7D571484FF4FA510068B0FBF1F071
:1011F000009000BF0098411E0091FAD20EE080E0FE
:10120000C0F80080FFF7E4FD074604E0FFF7E0FDCB
:10121000C01B022875D8686A8007F7D42078400779
:1012200060D5E8690027C00008D4E86940F0805024
:10123000E861E869012700F0805000905C4801688F
:10124000C90513D40168834641F480710160FFF73A
:10125000BFFD824606E000BFFFF7BAFDA0EB0A0023
:1012600064284ED8DBF80000C005F5D5E0680128F9
:101270000AD008B1052813D0286A20F0010028629E
:10128000286A20F0040002E0286A40F00100286289
:10129000E06841F2883B98B1FFF79AFD82460BE087
:1012A000286A40F004002862EEE700BFFFF790FDD7
:1012B000A0EB0A0159455AD8286A8007F6D50CE0F8
:1012C000FFF786FD824605E0FFF782FDA0EB0A01ED
:1012D00059454CD8286A8007F6D41FB1E86920F038
:1012E0008050E861E06988B36968C1F3810102292F
:1012F00044D00228C6F8608004D0FFF769FD044698
:1013000038E034E0FFF764FD074604E0FFF760FDD6
:10131000C01B02282BD828688001F7D4206AB0F5BA
:10132000803F05D16868A16820F4003008436860F8
:10133000D4E908010843696821F47411084368601E
:10134000C6F86090FFF744FD044606E025E000BFC4
:10135000FFF73EFD001B022809D828688001F7D559
:101360001BE000BFFFF734FD001B022802D9032059
:10137000BDE8F88F28688001F4D40EE00128F7D08A
:101380006868226A00F48031914204D1616A00F4F5
:101390007010884201D00120EAE70020E8E7000051
:1013A0000010024000004242800442420C00002033
:1013B0000070004010B5401EB0F1807F01D30120C5
:1013C00010BD4FF0E02460610F21601701F0B0F90B
:1013D0000020A06107202061002010BD70477047E9
:1013E00010B590F83C20012A22D0012280F83C2040
:1013F000CA688C6822F4407222434C6822F48062EE
:1014000022430C6822F4006222430C6922F48052C9
:1014100022434C6922F400522243C969002322F47A
:1014200080420A4301684A6480F83C30002010BDC5
:10143000022010BD70B590F83C20012A26D001246E
:1014400080F83C40022280F83D2003685A689D687D
:1014500022F070060A6832435A600D4B02689A42C5
:1014600008D0B2F1804F05D00A4B9A4202D00A4B05
:101470009A4204D1496825F080031943916080F8AD
:101480003D40002180F83C10084670BD022070BD30
:10149000002C0140000400400008004010B504008A
:1014A00003D094F83D0010B107E0012010BD0020EA
:1014B00084F83C00204600F01FF8022084F83D002C
:1014C000211D206800F0E8FE012084F8460084F821
:1014D0003E0084F83F0084F8400084F8410084F81E
:1014E000420084F8430084F8440084F8450084F8FE
:1014F0003D00002010BD000008B5174A01681748DC
:10150000914207D1816941F400618161806900F4F1
:1015100000601EE0B1F1804F14D0114A914219D100
:10152000C16941F00201C161C069002200F00200FE
:10153000009011461D20FFF7AFFCBDE808401D20BC
:10154000FFF79CBCC16941F00101C161C06900F0B5
:101550000100009008BD0000002C01400010024076
:101560000004004090F83D10012901D0012070478F
:10157000022180F83D100168CA6842F00102CA6089
:1015800000680B49884208D0B0F1804F05D0094966
:10159000884202D00849884204D1816801F00701DD
:1015A000062903D0016841F0010101600020704765
:1015B000002C014000040040000800400168CA6897
:1015C00022F00102CA6001680A6A41F211131A424C
:1015D00007D10A6A9B101A4203D10A6822F001025D
:1015E0000A60012180F83D100020704770B5044664
:1015F00090F83C00012817D0012584F83C500220C7
:1016000084F83D002068826822F0770222F47F424D
:1016100082600868502830D00DDC20284DD005DCD1
:1016200098B310283BD148E0022070BD302844D048
:10163000402834D139E0602828D0702806D0B0F591
:10164000805F2CD0B0F5005F29D10AE0CB68D1E9EA
:101650000121206800F063FE2068816841F0770175
:1016600009E0CB68D1E90121206800F058FE20682C
:10167000816841F48041816011E0CA68496820684E
:1016800000F002FF5021206807E016E0CA684968B0
:10169000206800F00AFF6021206800F04AFE84F80C
:1016A0003D50002084F83C0070BDCA68496820683D
:1016B00000F0EAFE40212068EFE72268014610466C
:1016C000EBE7704770B50446006801694FF000050C
:1016D000C943890715D4C168C943890711D4E91ED4
:1016E000016101202077206880698007204602D0B0
:1016F000FFF7E7FF04E000F0CDF8204600F05CF9CA
:10170000257720680169C943490717D4C168C943CF
:10171000490713D46FF0040101610220207720688B
:10172000806910F4407F204602D0FFF7CAFF04E032
:1017300000F0B0F8204600F03FF9257720680169F5
:10174000C943090716D4C168C943090712D46FF009
:1017500008010161042020772068C06980072046C5
:1017600002D0FFF7AEFF04E000F094F8204600F04E
:1017700023F9257720680169C943C90617D4C168D0
:10178000C943C90613D46FF0100101610820207706
:101790002068C06910F4407F204602D0FFF791FF17
:1017A00004E000F077F8204600F006F9257720687D
:1017B0000169C943C90708D1C168C943C90704D130
:1017C000891E0161204600F047F920680169C9437C
:1017D000090609D4C168C943090605D46FF0800120
:1017E00001612046FFF7FAFD20680169C9434906F7
:1017F00009D4C168C943490605D46FF040010161AD
:10180000204600F033F920680169C94389060BD4EA
:10181000C168C943890607D46FF0200101612046E1
:10182000BDE87040FFF7DBBD70BD000010B586B0AD
:1018300000210091019102910391134C0368134917
:1018400002221348A3420AD18B6943F004038B613F
:10185000896901F0040104914FF470610BE0B3F168
:10186000804F0ED18B6943F004038B61896901F0CD
:10187000040104910421CDE9001269460392FFF7A7
:10188000B1F906B010BD0000002C0140001002406C
:1018900000080140704770B5044690F83C000D46C2
:1018A00001280AD0012084F83C0042B1042A18D053
:1018B000082A2AD00C2A4DD139E0022070BD2068B8
:1018C00000F040FD2068816941F0080181612068D5
:1018D000816921F004018161206881692A691143CD
:1018E00011E0206800F056FD2068816941F4006134
:1018F00081612068816921F480618161206881694A
:101900002A6941EA0221816124E0206800F06EFD2D
:101910002068C16941F00801C1612068C16921F0F6
:101920000401C1612068C1692A69114311E020687E
:1019300000F088FD2068C16941F40061C161206840
:10194000C16921F48061C1612068C1692A6941EAE5
:101950000221C161002084F83C0070BD10B5040074
:1019600003D094F83D0010B107E0012010BD002025
:1019700084F83C00204600F01EF8022084F83D0068
:10198000211D206800F088FC012084F8460084F8BE
:101990003E0084F83F0084F8400084F8410084F859
:1019A000420084F8430084F8440084F8450084F839
:1019B0003D00002010BD70477047000010B5044680
:1019C000022249B104290ED0082913D094F841000D
:1019D000012816D0012010BD94F83E000128F9D14D
:1019E00084F83E200FE094F83F000128F2D184F8FB
:1019F0003F2008E094F840000128EBD184F8402013
:101A000001E084F841200122206800F07BFC0F49AE
:101A10002068884203D1426C42F40042426420684C
:101A2000884208D0B0F1804F05D00949884202D0E1
:101A30000849884204D1816801F00701062903D0D2
:101A4000016841F001010160002010BD002C01403F
:101A500000040040000800400349096A814201D1A6
:101A600000F04EBD70470000B8010020704770477D
:101A700070470000F8B5026804461068D1685369E1
:101A800010F00F0F4FF0000554D003F0010601F4E1
:101A9000907737435FD0C20705D0CA0503D5226CC3
:101AA00042F001022264420705D5DA0703D0226C16
:101AB00042F002022264820705D5DA0703D0226CC5
:101AC00042F004022264020707D501F020023243EB
:101AD00003D0226C42F008022264226C002A35D026
:101AE000800604D5880602D5204600F061FD2068F6
:101AF0004069216CC0F3801001F0080101432046C9
:101B000025D000F03DFD2068416949061BD541699B
:101B100021F040014161A06BA8B158494163A06B1D
:101B2000FEF798FF002811D0A06B416B01B0BDE813
:101B3000F040084783060ED58B060CD52046BDE83D
:101B4000F84000F035BD2046FFF792FFF8BDFFF7E3
:101B50008FFF2564F8BD266B2023012E52D1C606C7
:101B600050D5CE064ED5106850680090506940069A
:101B70002AD5A16B086840680004000CEAD0A68D45
:101B80008642E7D9E0858869202818D0D06820F4FB
:101B90008070D0602068416921F0010141612068B6
:101BA000416921F04001416184F83E30256320689D
:101BB000C16821F01001C160A06BFEF728FFA08D65
:101BC000E18D401A81B219E0A08DE18D401A81B2F9
:101BD000E08D0028BED00029BCD0D06820F49070E1
:101BE000D0602068426922F00102426184F83E30F0
:101BF00025632068C26822F01002C2602046FFF709
:101C000036FFF8BD05062BD50D0629D594F83D0005
:101C10002128F6D1A068B0F5805F01D12069B0B16C
:101C2000206A411C2162216800784860E08C401ED7
:101C30000004000CE084E4D12068C16821F0800138
:101C4000C1602068C16841F04001C160F8BD206AF0
:101C50000088C0F308005060206A801C2062E5E71D
:101C60004006F3D54806F1D5D168204621F0400161
:101C7000D16084F83D3000F07CF8F8BD7125000893
:101C800090F83E30202B0ED159B152B190F83C3033
:101C9000012B08D0012380F83C300023036300F0BF
:101CA000E2BC012070470220704700000349896AA6
:101CB000814201D1FEF756BE704700003801002076
:101CC0002DE9F843044690F83D001F4616460D46A0
:101CD00020284CD1C5B1BEB194F83C00012846D0B3
:101CE000012084F83C004FF00008C4F84080212017
:101CF00084F83D00FFF76CF8A6848146E684A0686E
:101D0000B0F5805F03D004E00120BDE8F8832069CE
:101D100028B12E465FF0000584F83C800EE00026D6
:101D2000FAE78021204600F0B9FCA0B9AEB116F860
:101D3000010B21684860E08C401EE084E08C4B463B
:101D40004FF0000200970028EBD14FF040012046F1
:101D500000F0A4FC30B10320D7E735F8020BC0F344
:101D60000800E6E7202084F83D000020CDE70220AF
:101D7000CBE77047FEE7000070B5074D0020044632
:101D8000287228192146427A04A0FEF7C7FD641C78
:101D9000082CF6DB70BD0000680100202564202DB2
:101DA0003E202564000000000020064902460B1872
:101DB000401C5A720828FADB01200872024964208C
:101DC00000F0BCBB68010020791D0008014900201B
:101DD000087270476801002002490144487A401C9B
:101DE000487270476801002030B585B000242F4844
:101DF00002940394816941F020018161816901F0BD
:101E000020010491816941F004018161816901F03F
:101E100004010491816941F0080181618069244DC8
:101E200000F008000490F820CDE90005694621483B
:101E3000FEF7D8FE40F20340CDE900056946029462
:101E40001D48FEF7CFFE002211460620FFF724F8BA
:101E50000620FFF713F8002211460720FFF71CF8B1
:101E60000720FFF70BF8002211460920FFF714F8AE
:101E70000920FFF703F8002211460A20FFF70CF8AB
:101E80000A20FEF7FBFF002211461720FFF704F897
:101E90001720FEF7F3FF002211462820FEF7FCFF73
:101EA0002820FEF7EBFF05B030BD00000010024017
:101EB0000000211000080140000C014010B596B050
:101EC00000240F9410941194129413941C216846CA
:101ED0001494FEF750F9202107A8FEF74CF9344876
:101EE0003249C0E900144FF47A71C0E9024104613B
:101EF00044618461FFF7D2FA08B1FEF786FD4FF422
:101F000080500F900FA92A48FFF770FB08B1FEF729
:101F10007CFD2748FFF722FD08B1FEF776FD1394FC
:101F200013A923481494FFF785FA08B1FEF76DFD55
:101F30006020CDE9000402940394049405940022E7
:101F400069461B480694FFF7A6FC08B1FEF75DFD45
:101F5000042269461648FFF79EFC08B1FEF755FDBE
:101F6000082269461248FFF796FC08B1FEF74DFDBE
:101F70000C2269460E48FFF78EFC08B1FEF745FDBE
:101F80000794089409944FF400500A94CDE90B404B
:101F900007A907480E94FFF723FA08B1FEF735FDAD
:101FA0000348FFF743FC16B010BD0000002C0140B1
:101FB0001C00002010B58EB00024079408940994EA
:101FC0000A940B941C2168460C94FEF7D4F81E4822
:101FD0004FF08041016040F21F31C0E9011440F22E
:101FE0000771C0E903148461FFF758FA08B1FEF7DE
:101FF0000CFD4FF48050079007A91348FFF7F6FA3D
:1020000008B1FEF702FD1048FFF7A8FC08B1FEF783
:10201000FCFC0B940BA90C480C94FFF70BFA08B1CD
:10202000FEF7F3FC6020CDE9000402940822694623
:1020300005480494FFF72FFC08B1FEF7E6FC0248C0
:10204000FFF7F4FB0EB010BD64000020FEE72DE9A1
:10205000F04385B00E46DDF83080CDE90062CDE971
:102060000238174681461D4639463046FFF7A6FC22
:102070000024E7B1042F1DD03068082F1DD0046460
:1020800041462846FFF79AFCB8F1000F17D0B8F187
:10209000040F17D02868B8F1080F16D00464142272
:1020A00069464846FEF74EF805B0BDE8F083306853
:1020B0004463E5E730688463E2E7C463E0E72868E7
:1020C0004463ECE728688463E9E7C463E7E77EB527
:1020D0000026DDE90754002C06DAC4F10004E4B25E
:1020E000CDE90054029608E004DDE4B20095CDE9A4
:1020F000016402E001960296009500F001F87EBDB1
:10210000F0B5DDE90665642E00D96426642D00D99A
:1021100064250768C4686420A9B1042918D0082977
:1021200004FB06F4B4FBF0F117D03964BBB1042B07
:102130001CD0D168082B01FB05F1B1FBF0F0116850
:102140001BD00864F0BD7443B4FBF0F17963EDE794
:102150007443B4FBF0F1B963E8E7F963E6E7D168EB
:102160006943B1FBF0F011684863F0BDD168694381
:10217000B1FBF0F011688863F0BDC863F0BDFEE705
:1021800070477047064A10B55A2382E80B003C237B
:102190001374FFF713FCBDE810405A2000F002B89A
:1021A000A40100200A2801DA0A2002E0AA2800DDA2
:1021B000AA200249C86000F01BB80000A40100205A
:1021C0000A4988604A6809682D3032B1042A07D06C
:1021D0000968082A07D0086470470968486370478F
:1021E000096888637047C86370470000A401002035
:1021F0000C4B10B5D3E90210421A002A0DDC12F183
:102200000A0F0ADAA1F10A00FFF7DAFF187CAFF231
:102210001F01BDE8104000F091B9BDE81040FFF784
:10222000CFBF0000A4010020FEF7D8BD30B58FB0AD
:1022300028216846FDF79FFF14210AA8FDF79BFFA0
:1022400001210804CDE90010002402940225049124
:10225000CDE907504FF4E01009906846FEF71AFFE9
:1022600008B172B6FEE70F20CDE90A054FF4806091
:10227000CDE90C4002210AA80E94FEF73FFE00288B
:1022800001D072B6FEE70FB030BD70470148FFF7CE
:1022900019BA0000AC000020F0B50268164B174CCC
:1022A000174D4FF08047984205D0B84203D0A04266
:1022B00001D0A84203D122F070064A683243984206
:1022C00005D0B84203D0A04201D0A84203D122F4E5
:1022D0004074CA6822434C6922F0800222430260A3
:1022E0008A68C2620A688262984201D10969016300
:1022F00001214161F0BD0000002C014000040040BC
:102300000008004010B501F01F030121046A994044
:102310008C430462016A9A401143016210BD10B5FA
:10232000846842EA032224F47F440A432243826001
:1023300010BD826822F070020A4342F007018160FA
:102340007047000030B5026A22F001020262026AA0
:102350004368846924F073050C682C4322F002055D
:102360008A682A430A4DA8420BD122F00805CA68A0
:1023700023F440732A434D6922F004021D438B6904
:102380002B434360846149684163026230BD0000B1
:10239000002C014030B5026A22F010020262026A8B
:1023A000436884690D6824F4E64444EA05248D6892
:1023B00022F0200242EA05120B4DA8420ED1CD6850
:1023C00022F0800242EA05124D6923F4406343EA99
:1023D00085038D6922F0400243EA850343608461EE
:1023E00049688163026230BD002C014030B5026A49
:1023F00022F480720262036A4268C46923F40073A3
:1024000024F073050C682C438D6843EA05230C4DBA
:10241000A8420ED1CD6823F4006343EA05234D6939
:1024200022F4405242EA05128D6923F4806342EAA5
:1024300005124260C4614968C163036230BD000097
:10244000002C014030B5026A22F480520262046A14
:102450004268C3690D6823F4E64343EA05238D68A7
:1024600024F4005444EA0534064DA84204D14D69D1
:1024700022F4804242EA85124260C36149680164E5
:10248000046230BD002C014010B5036A046A24F0D8
:1024900001040462846924F0F00444EA021423F085
:1024A0000A020A438461026210BD10B5036A23F078
:1024B000100303628369046A23F4704343EA02321F
:1024C00024F0A00343EA01118261016210BD000003
:1024D000064A4FF0FF30002152F821301BB1491C51
:1024E0000829F9DB7047084670470000B801002052
:1024F000024908620020486470470000B8010020CB
:1025000070B500260C4D344655F8240048B1401EE5
:1025100045F824004FF0010603D105EB8400406A22
:102520008047641C082CEFDB002E04D1286ABDE82C
:102530007040FFF743B870BDB801002070B50D467C
:102540000646FFF7C5FF0446401C0CD0074800EBC9
:10255000840140F824604D6201214164006AFFF764
:1025600001F8204670BD4FF0FF3070BDB80100206B
:1025700010B5406A0021C185C184FFF779FA10BD0A
:102580000168CA6822F49072CA6001684A6922F040
:1025900001024A61016B012904D10168CA6822F075
:1025A0001002CA60202180F83E10002101637047AC
:1025B00008B590F83E10222901D0022008BD82689B
:1025C0004FF480539A4201D1016921B1816A9A4244
:1025D0001BD04AB10AE00268816A5268C2F308025D
:1025E0000A80816A891C08E0026972B10268526837
:1025F00002F07F020A70816A491C8162C18D491E06
:102600000904090CC18503D019E002685268F1E79A
:102610000168CA6822F02002CA600168CA6822F410
:102620008072CA6001684A6922F001024A61202171
:1026300080F83E10016B012903D0FFF737FB002023
:1026400008BD002101630168CA6822F01002CA6057
:1026500001680A68D20602D50A6849680091818D2E
:10266000FFF705FAEBE781628285C28500210164EC
:10267000222280F83E2080F83C100168CA6842F4AB
:102680008072CA6001684A6942F001024A610068CA
:10269000C16841F02001C160002070472DE9F04180
:1026A000984617460E460446069D1DE0681C1BD042
:1026B0002DB1FEF78DFBA0EB0800A84214D92068CD
:1026C000C16821F4D071C1602068416921F0010125
:1026D0004161202084F83D0084F83E00002084F809
:1026E0003C000320BDE8F0812068006836EA000065
:1026F00004D00020B842D9D00020F3E70120F9E748
:102700000148FFF7B7B90000F4000020FEE7000021
:102710000FB4054B10B503A9044A029800F0DEF887
:1027200010BC5DF814FB00000D3000081400002000
:102730000907090E002804DB00F1E02080F80014EE
:10274000704700F00F0000F1E02080F8141D704782
:10275000004870471800002002E008C8121F08C196
:10276000002AFAD170477047002001E001C1121F12
:10277000002AFBD1704700002DE9FF5FDDE9022050
:10278000010DDDF838B0024318D044F61050A1F224
:10279000FF3141430D140F98012820D0A5EB0B0009
:1027A000401C5FEA000A4FF00004474EDFF81C911E
:1027B000A046504616D5CAF1000728E00F9801241C
:1027C00043A2012808D0002100980F9BC0E90021F6
:1027D000C0E90243BDE8FF9F6FEA0B01F4E7CBF1CC
:1027E0000000DEE7074612E0F80707D0224633462E
:1027F00040464946FDF72DFE80468946224633462F
:1028000010461946FDF725FE04460E467F10002FA0
:10281000EAD1DDE90201BAF1000F42464B4602DA85
:10282000FDF717FE01E0FDF786FE04460E46002286
:10283000284BFDF707FF03D84FF0FF30014607E0B4
:102840000022254B20463146FDF75CFDFDF7E2FEF8
:10285000102409E0002C0ADB0A220023FDF7E9FC22
:10286000019B30321A55641E50EA0102F2D1641CF9
:10287000019AC4F1110314440F9A012A03D00122D2
:1028800008430DD10AE0084304D000204FF0110B9B
:102890000F9080E7A3EB0B056D1E0DE05B4504DD9B
:1028A0004FF0000205F1010504E003DA4FF00002E9
:1028B000A5F10105002AECD000980F99C0E902317A
:1028C000C0E9004586E70000000024400000F03F1A
:1028D000300000000000F0430000E03F2DE9FF4F12
:1028E00095B09B468946064600250FE2252877D1FC
:1028F00000242746F84A0121059400E0044316F815
:10290000013F203B01FA03F01042F7D130782A282A
:1029100011D06FF02F033078A0F13002092A16D8B9
:10292000059A44F0020402EB820203EB42021044D7
:10293000761C0590EFE759F8042B0592002A03DA7C
:10294000504244F40054059044F00204761C307860
:102950002E2816D116F8010F44F004042A280DD0B1
:102960006FF02F023078A0F13003092B09D807EB64
:10297000870302EB4303C718761CF3E759F8047B7F
:10298000761C30786C280FD006DC4C2817D06828CD
:102990000DD06A2814D104E0742810D07A280FD101
:1029A0000DE044F400140AE044F4801401E044F41F
:1029B00040147278824202D104F58014761C761C91
:1029C000307866280BD013DC582877D009DC002833
:1029D00075D04528F6D04628F4D047281AD19DE175
:1029E00018E0632835D0642879D0652812D195E1A4
:1029F000702873D008DC6728F1D069286FD06E2862
:102A00000DD06F2806D1B5E073282CD0752875D06D
:102A1000782874D05A46179990476D1C75E1C4F315
:102A20000250022809D003280DD0D9F8001004283C
:102A30000DD00D6009F1040967E1D9F80010EA171B
:102A4000C1E90052F6E7D9F800100D80F2E70D70E9
:102A5000F0E719F8041B8DF8001000208DF8010034
:102A6000EA46012003E059F804AB4FF0FF3061075C
:102A70004FF0000102D40DE008F101018846B9428F
:102A80000FDA8045F8DB1AF808100029F4D108E0C5
:102A900008F1010188468142FADB1AF80810002982
:102AA000F6D105985B46A0EB080721463846179AF1
:102AB00000F094FA284400EB080507E04DE029E116
:102AC0000DE01AF8010B5A4617999047B8F1010822
:102AD000F7D25B4621463846179A13E142E00A22B4
:102AE0000092C4F302524FF0000A022A08D059F8AB
:102AF00004CB032A4FEAEC710AD00DE029E02AE06A
:102B000009F1070121F00702F2E802C1914609E04C
:102B10000FFA8CFC4FEAEC71042A03D14FFA8CFCBB
:102B20004FEAEC71002907DA0A460021DCF1000CBB
:102B300061EB02012D2202E0220504D52B228DF843
:102B40000420012203E0E20701D02022F7E79046AB
:102B500059E00A2102E010220DE010214FF0000A96
:102B600000910BE010224FF0000A44F00404082703
:102B7000009203E008224FF0000A0092C4F30252D0
:102B8000022A05D059F804CB0021032A08D009E015
:102B900009F1070121F00702F2E802C1914605E0C0
:102BA0001FFA8CFC042A01D10CF0FF0C4FF0000836
:102BB000220728D5702806D0009B83F0100353EA23
:102BC0000A0305D00EE040228DF80420012208E01F
:102BD0005CEA010206D030228DF804208DF8050051
:102BE00002229046009B83F0080353EA0A030AD1AD
:102BF0005CEA010201D1620705D530228DF804207C
:102C00004FF001087F1E582804D034A003900EA86E
:102C100002900DE036A0F9E753466046009AFDF7B2
:102C200008FB84460398825C0298401E0290027062
:102C30005CEA0100F0D1029806A9081A00F1200A06
:102C4000600702D524F4803400E00127574502DDF7
:102C5000A7EB0A0000E0002000EB0A0100900598B5
:102C60004144401A0590E00306D45B462146179A7A
:102C7000059800F0B3F90544002706E001A85A467C
:102C8000C05D179990476D1C7F1C4745F6DBE0033C
:102C90000CD55B462146179A059800F09FF905442C
:102CA00004E030205A46179990476D1C0099481E41
:102CB00000900029F5DC08E0029802995A46007855
:102CC000491C0291179990476D1CBAF10001AAF1B5
:102CD000010AF1DC65E100000928010030313233DE
:102CE0003435363738396162636465660000000048
:102CF0003031323334353637383941424344454632
:102D00000000000000F058F90544761C30780028D7
:102D10007FF4ECAD19B02846BDE8F08F620700D40F
:102D2000062709F1070222F0070CFCE80223E1461E
:102D300003F000485FEA080C02D00FF2702C0DE09F
:102D40005FEA045C02D50FF2682C07E05FEAC47CFE
:102D500002D00FF2602C01E0AFF2700C4FF0FF38A0
:102D600023F00043CDF850C065280CD006DC452880
:102D700009D046281DD047283DD13DE0662818D00F
:102D800067287ED138E00021112F01DB112000E0FF
:102D9000781CCDE9000106A90EA8FFF7EDFCDDE9DE
:102DA0000F010E9A03910021009207F1010A04918C
:102DB0004DE04FF000400097CDE9011006A90EA8A4
:102DC000FFF7DAFCDDE90F0203920E9B1199002256
:102DD000DDF80CA00093049211B9791C00EB010AF4
:102DE000B7EB0A0004D4C0F1FF3007F1010A0490E8
:102DF000AAEB0700019044E0012F00DA012700212F
:102E0000112F01DD112000E03846CDE9000106A9AF
:102E10000EA8FFF7B1FCDDE90F010E9A0391002126
:102E200004910092BA4621070CD40399514500DA67
:102E30008A46BAF1010F05DD009AAAF10101515C41
:102E4000302908D0B84202DA10F1040F06DA012165
:102E5000CDE9011015E0AAF10101E9E7002805DC40
:102E6000049901440491AAEB000102E0411C514580
:102E700000DD8A460499401A401C01904FF0004042
:102E80000290200704D40198504501DBCDF804805E
:102E900000208DF84F0002980DF14F07B0F1004F60
:102EA00025D02B200E9002984FF0020800280CDA53
:102EB000404202902D200E9007E00A210298FDF773
:102EC000A2F93031029007F8011DB8F10001A8F114
:102ED0000108F2DC02980028EFD1791E0E980870E4
:102EE000307800F0200040F0450007F8020D12A8ED
:102EF000C01B00F107081498007800B1012000EB16
:102F00000A01019801EBE07105984144401A401E06
:102F10000590E00306D45B462146179A059800F019
:102F20005DF805441498007818B15A4617999047EF
:102F30006D1CE00324D55B462146179A059800F0E6
:102F40004DF805441CE00498002807DBDDE9030187
:102F5000884203DD0098405C179901E01799302002
:102F60005A469047049805F10105401C04900198C9
:102F7000401E019004D12E205A46179990476D1C8F
:102F8000BAF10001AAF1010ADDDC05E017F8010B36
:102F90005A46179990476D1CB8F10001A8F1010835
:102FA000F4DC5B462146179A0598ABE62D0000003D
:102FB0002B000000200000002DE9F0410446002510
:102FC0001E461746880404D405E039462020B04741
:102FD0006D1C641EF9D52846BDE8F0812DE9F0414D
:102FE000044600251E469046C80301D5302700E060
:102FF0002027880404D505E041463846B0476D1CBB
:10300000641EF9D52846BDE8F081000038B50446B5
:103010008DF8000004484FF6FF730122806A69466C
:10302000FEF74EFE204638BD3801002086B0FDF781
:10303000DDFEFFF7FBF8FEF7D7FEFEF73FFFFEF7DA
:10304000B9FF2F48FFF754FA08212E48FFF79AF8E6
:10305000FEF7BCFE04202C4B00900022194601A86C
:10306000FEF7F5FF142201A92848FDF76BF80C20A4
:10307000254B00900822194601A8FEF7E8FF14220C
:1030800001A92348FDF75EF822A0FDF747FC1F4C7D
:103090005A2701972069009094E80F00FFF717F86E
:1030A0004FF47A763046FDF721FD632501952069BE
:1030B000009094E80F00FFF70AF83046FDF716FD80
:1030C000134C01972069009094E80F00FEF7FFFF72
:1030D0003046FDF70BFD01952069009094E80F0044
:1030E000FEF7F5FF3046FDF701FD9620FFF75AF891
:1030F0003046FDF7FBFC0A20FFF754F8FEE700001E
:10310000AC000020640000201C0000207C01002096
:103110009001002046696E697368202E2E2E2E2E97
:103120002E00000000000000000000000102030467
:1031300006070809004040404040404040404141AF
:10314000414141404040404040404040404040407C
:103150004040404040050202020202020202020216
:103160000202020202202020202020202020200213
:1031700002020202020290909090909010101010A3
:10318000101010101010101010101010101010103F
:1031900002020202020288888888888808080808D3
:1031A000080808080808080808080808080808089F
:1031B000020202024000000035310008DC31000844
:1031C000000000201C00000058270008F83100080B
:1031D0001C000020E4050000682700080100000032
:1031E00010000000000000000024F40000000000B7
:0831F0000000000000000000D7
:04000005080000ED02
:00000001FF
